:10072E008E198F1AC9EDC9E960240BEBCEEACE7093
:10073E00010A14F5828E83E493FF051AE51AAC19AB
:0F074E007002051914F5828C83EFF01980D922FF
:100866008E198F1ACFEDCF1DEF6013051AE51AAE5C
:0F087600197002051914F5828E83EBF080E622CB
:1007AF0031313A33393A30382031302F32302F311E
:1007BF003500424954313631384320435652494E61
:0707CF005476302E30320099
:1006F9007B207D287F967E041208667A077BAF7D72
:10070900117F967E0412072E7A077BC17D147FAA7A
:100719007E0412072E90012D7484F07536FF900027
:05072900FB7464F022E6
:1003E3001208DCAD347F0F7E04120643AD357F2344
:1003F3007E041206439001E5E0FD7F377E0412067A
:10040300439001E6E0FD7F4B7E04120643E537FD92
:100413007C00751F207B107A277F197E04120468E5
:1004230090011D7484F0E533600BD394D25006120F
:1004330006F9E4F533E537600BD394D25006120581
:1004430076E4F537E5366012D39487500D90010DAD
:100453007404F090012DF0E4F5363004861201FFA8
:05046300C2040203E6E3
:09090E00D2057533FF7537FF2295
:030003000205BE35
:1005BE00C0E0C0F0C083C082C0D075D008900002E9
:1005CE00E0FF30E00CC2057537FF9000CDE04440EF
:1005DE00F0EF30E5129001ACE05407F529FD7F8570
:1005EE007E041206430534120846D0D0D082D08342
:0505FE00D0F0D0E03256
:1008460090000374FFF09001A97407F0900004E48F
:10085600F07421F09001A97470F0900003E4F02286
:030013000206BE24
:1006BE00C0E0C0F0C083C082C0D075D010900005DD
:1006CE00E0FF30E00CD2057537FF9000CDE054BF4F
:1006DE00F0EF30E3062005037537FF05351208CA23
:0B06EE00D0D0D082D083D0F0D0E0321A
:1008CA0090000674FFF0A3E4F07409F0900006E4C7
:0208DA00F0220A
:10088500900008740FF01208461208CA75B82F7543
:09089500885F75C80675A8AF2242
:10052B00003F003F003F003F2000003F3F00003FE7
:10053B003F20000000003F3F3F3F200210130047C9
:10054B0000BF1C0000000209000000003000047115
:10055B008D0A0000001306000000300084CFB39614
:0B056B00000008130111000030000424
:07091F0074302532F532228D
:1002AE00C20390012EE4F07A057B2B7D09FF7E03BD
:1002BE0012072E90012E7401F07A057B3412034C36
:1002CE007402F07A057B3D12034C7403F07A057BC1
:1002DE00467D067F00FE12072E90012FE4F07B2054
:1002EE007D0AFF7E041208667D8C7F0A7E0412084A
:1002FE00667D287F967E041208667B037D0A7F004A
:10030E007E051208667B137D8C7F0A7E05120866B9
:10031E007B237D287F967E051208667A057B4C7DB1
:10032E000E7F007E0112072E7A057B5A7F107E010A
:10033E0012072E7A057B687F207E0102072E7F0032
:09034E007E0312072E90012E22FD
:10064300EDC4540FF532C3940A500512091F8006F6
:10065300E5322437F5328F828E83E532F00FBF0007
:10066300010EED540FF532C3940A500512091F8091
:0F06730006E5322437F5328F828E83E532F0228E
:1007FD00753214EDC39403400C8F828E837403F015
:10080D001D1D1D80088F828E83EDF0E4FD0FBF004E
:06081D00010ED532DE22BF
:100468008E198F1A8C1B8D1C8A308B31E5314530E3
:10047800605BAC30AD31AE1BAF1C1204D68F32E5D9
:100488001F6430600CE5327008E531640145307056
:100498000812091F751F308003851F32851A82854F
:1004A8001983E532F0051AE51A70020519AE1BAF7B
:1004B8001CAC30AD311204D68C1B8D1CAE30AF3164
:0E04C8007C007D0A1204D68E308F31809F2278
:1008DC0012060312090E12075D1206821202AE02F4
:0208EC0008857D
:1007D6004272696768746E65737300436F6E7472F4
:1007E60061737420200053617475726174696F6E51
:0707F6000007D607E107EC44
:050926000326004080E3
:10068200C2049001A77402F0A3F090000FE044802E
:10069200F090019F74FEF09001A17491F0A3740B8D
:1006A200F0A37410F09001A67403F0A37472F074B6
:0C06B20002F09001A97407F07470F022AF
:1001FF00E52970030202AD30E008E4F5215329FE32
:10020F008013E52930E1087521015329FD8006751A
:10021F0021025329FB74262521F8E6440B9001A2F5
:10022F00F09001AAE0F522FD7F0A7E041206431228
:10023F0007878F187B207D287F967E04120866E53E
:10024F002125E024F7F582E43407F583E493FA746B
:10025F000193FB7D0A7F967E0412072EE518FD7C25
:10026F0000751F207B647A007FA77E04120468AD9F
:10027F00187FAA7E041207FDE52114600C1460108C
:10028F008000AF18120917800CAF1812001E8005DE
:0F029F00AF181208B690012D7484F07536FF2247
:10078700E522D394EE40037F1E22E522D394C8408E
:10079700037F3C22E522C3941450037F0022E52205
:0807A70024EC75F00384FF222D
:10075D0075896690018A7405F0758CC4758AC4D24A
:10076D008CD2A9758DFF758BFFD28ED2AB75CDFC5A
:0A077D0075CC1875CBFC75CA182264
:03000B000208FFE9
:0F08FF00C0E0052BE52B7002052AD200D0E032B5
:03001B00020823B5
:10082300C0E0052DE52D7002052CD201E5336002F1
:100833001533E53760021537E53660021536D20405
:03084300D0E032D0
:03002B000208EEDA
:1008EE00C0E0C2CF052FE52F7002052ED202D0E058
:0108FE0032C7
:10002E002020202020202050414C00202020202065
:10003E0050414C2D4E002020202020534543414D51
:10004E0000202020202050414C2D4D004E54534373
:10005E0034343320353000202020204E5453432D8D
:10006E004D004E54534334343320363000426C61CD
:10007E00636B5768697465002020202050414C2D19
:10008E00363000204E6F205369676E616C00202061
:10009E0020202020343830690020202020202035D8
:1000AE003736690020202020202034383070002080
:1000BE00202020202035373670001284FCA98900BC
:1000CE0000000000220004000A2D4D30F8C3330555
:1000DE0008E90049000000000000012000000000B7
:1000EE000000000000800001178017034000070089
:1000FE00003F3F84E008AA7A30173E10A0703017F8
:10010E001710405888C3C32080232D4D30A72730A9
:10011E0018F801200003000000000088060001030B
:10012E006CD830886CF1306C00000000000009E0E3
:10013E008FA4A00340C0772C20031700000014FBEF
:10014E000000FB000000A403007B7BFFACF204B3B5
:10015E00040400402278800000000D0D0088A040AD
:10016E00198D85EAA4327F3180FE403200080000EE
:10017E004DFB7180C3929B019B01928100D00000C8
:10018E000010805E8D040400000015003F8ED08F9D
:10019E0003000000020000880100000300000000C0
:1001AE0000000000000012008000800002040080A9
:1001BE008080808080C63930808080C002404004BC
:1001CE00AA38C2CC2B000B8040101147000001163C
:1001DE00040E76020A002E00390044004F005A0029
:1001EE00650070007B00860091009C00A700B200A5
:0101FE00BD43
:100603007A017BDC7D077F987E0112072E7A007BBF
:10061300C87DF57F0A7E0012072E7A017BBD7D1609
:100623007F307E0112072E7A017BD37D047F607EAB
:100633000112072E7A017BD70D7F7F7E0102072EE1
:08091700EF246290013AF02286
:0A001E00EF25E0244490013BF0229E
:1008B6008F1912089EE51925E02404F51990013ECA
:0408C600F0A3F02289
:10089E00900140E0FEEF6006CE54FDCE8004CE44C3
:0808AE0002CE900140EEF022A1
:100576009001E5E0540EFFBF0E16A3E0540FFF24D2
:10058600F4600F0424FB5002800874F82FFF8002E9
:100596007F09EF25E024E3F582E43401F583E49353
:1005A600FA740193FB7D0A7F007E0412072E9001E8
:0805B6000D7484F07536FF227C
:03000000020357A1
:0C035700787FE4F6D8FD75813702039E24
:1004D600BC000BBE0029EF8DF084FFADF022E4CC0A
:1004E600F875F008EF2FFFEE33FEEC33FCEE9DECD3
:1004F600984005FCEE9DFE0FD5F0E9E4CEFD22ED19
:10050600F8F5F0EE8420D21CFEADF075F008EF2F62
:10051600FFED33FD4007985006D5F0F222C398FD53
:050526000FD5F0EA22F0
:100363000203E3E493A3F8E493A34003F68001F2CA
:1003730008DFF48029E493A3F85407240CC8C3339B
:10038300C4540F4420C8834004F456800146F6DF6A
:10039300E4800B0102040810204080900926E47ECB
:1003A300019360BCA3FF543F30E509541FFEE4935F
:1003B300A360010ECF54C025E060A840B8E493A326
:1003C300FAE493A3F8E493A3C8C582C8CAC583CA51
:1003D300F0A3C8C582C8CAC583CADFE9DEE780BE09
:01092B0000CB
:00000001FF
